:1000000025C032C031C030C0A4C02EC02EC02CC00C
:100010002BC02AC029C028C027C026C025C024C0A4
:1000200023C022C021C0F7EFFDFBFFBFF7FDFEFBA1
:10003000DFEF0001010203030404050606070808B8
:1000400009093F065B4F666D7D077F6F11241FBE58
:10005000CFEDCDBF20E0A0E6B0E001C01D92AD36EF
:10006000B207E1F72DD3A5C3CBCF1F920F920FB6E6
:100070000F9211242F933F934F935F936F937F932E
:100080008F939F93AF93BF93EF93FF9380916400FF
:10009000811112C084E0B1D0E0916300F0E0EB592F
:1000A000FF4F80818AD080916300A7D08091630048
:1000B0008F5F8370809363008091690090916A00E4
:1000C000803D934048F48091690090916A000196C8
:1000D00090936A0080936900FF91EF91BF91AF9177
:1000E0009F918F917F916F915F914F913F912F9150
:1000F0000F900FBE0F901F90189510BE83E083BF26
:1001000089B7826089BF08958091690090916A00E3
:10011000803D934031F410926A001092690081E0B2
:10012000089580E00895F894FC0180E090E021912A
:10013000DC01AB59BF4F2C93019684309105B9F780
:100140007894089581E0809364000895109264008B
:1001500008951F920F920FB60F9211248F9381E092
:1001600080936B008F910F900FBE0F901F9018958A
:1001700080E590E09BBD8ABD1FBC89E08EBD12BCAE
:1001800008951DBC1CBC89B7806489BF089589B7D8
:100190008F7B89BF089580916B00811110926B0055
:1001A00008958CEF8BBB1ABA81EE88BB8FE187BBB9
:1001B0008FEF82BB8FE781BB089592B39F6720E0EA
:1001C00030E0482F50E0BA01022E02C075956795C5
:1001D0000A94E2F760FF05C0F901E55DFF4FE49185
:1001E0009E232F5F3F4F2730310569F787FF02C0FD
:1001F000C09801C0C09A92BB089598B3E82FF0E070
:10020000EA5DFF4FE4919E61E923E8BB08951F93E7
:10021000CF93DF93182FD62FB4DFC0E0CD1741F076
:10022000BADF8823E9F399B396959170911305C0CD
:10023000AEDFCD1304C08FEF03C0CF5FEFCF8C2FA5
:10024000DF91CF911F9108958F929F92BF92CF928D
:10025000DF92EF92FF920F931F93CF93DF93CDB76F
:10026000DD27C550CDBF6C017B01D19A6AEF81E0DB
:10027000CEDF68DFD198CE0101964C0185E0F40114
:1002800011928A95E9F766E080E0C1DF8F3F09F4BB
:1002900052C06AE081E0BBDF8F3F09F44EC06AE0E4
:1002A00080E0B5DF8F3F09F44AC018E200E8B12CC6
:1002B0006AE081E0ACDF8F3F09F443C06AE080E090
:1002C000A6DF8F3F09F43FC0843030F0F401EB0D1E
:1002D000F11D8081802B8083069511F4B39400E892
:1002E000115031F76AE081E092DF8F3F71F149816F
:1002F00050E08A8190E0EB81F0E06C8170E09A013F
:10030000280F391F2E0F3F1F260F371F3327AD81B0
:10031000B0E02A173B07D9F4FE2FEE276E2B7F2B78
:10032000F60171836083542F4427842B952BF701AA
:10033000918380830DC010E30BC011E309C012E369
:1003400007C013E305C014E303C015E301C016E3BF
:10035000FDDE812FCB5FCDBFDF91CF911F910F913C
:10036000FF90EF90DF90CF90BF909F908F90089577
:10037000CF93C82F06DFCC2329F00DDF8823E9F3C4
:10038000C150F9CFCF9103CFCF93D09A81E0F0DF66
:10039000D09881E0EDDFC9B387E0EADF8C2F817070
:1003A000CF9108950F931F93CF93DF93C0E0D0E0D8
:1003B000082F10E0C8010C2E02C0959587950A946D
:1003C000E2F780FF02C0E0DF06C0D09A89E0D0DF0C
:1003D000D09881E0CDDF2196C830D10559F7DF9163
:1003E000CF911F910F910895CF93D09A87E3C0DFEB
:1003F000D09889E0BDDFC9B38EE2BADF8C2F80953B
:100400008170CF9108958F929F92AF92BF92CF92B9
:10041000DF92EF92FF920F931F93CF93DF93CDB7AD
:10042000DD27C950CDBF7C018FB7F894D098D898FC
:100430008FBFDADF882309F458C08CECB3DF8EEB72
:10044000B1DF8E010F5F1F4F88248394912C29E028
:10045000A22EA00EC12CD12CB12C96DF882339F00E
:10046000C4010C2C01C0880F0A94EAF7B82A8FEF58
:10047000C81AD80AE8E0CE16D10479F7F801B1928B
:100480008F01AE12E7CFB0DF882389F18D818F37DE
:1004900079F08CEC87DF8EE485DF80E083DF80E01D
:1004A00081DF8FE77FDFA0DF811105C083E122C0FC
:1004B00010916C0001C010E08CEC74DF84E472DFFA
:1004C00081E080936C008FB7F894D89AD09A8FBF50
:1004D000112379F02A8130E0322F22278981282BBD
:1004E000F7013183208380E005C081E103C082E110
:1004F00001C080E1C75FCDBFDF91CF911F910F9108
:10050000FF90EF90DF90CF90BF90AF909F908F9033
:100510000895DC01862F6AE02CD1E82FF0E0EE5B35
:10052000FF4FE491EC93E92FF0E0EE5BFF4FE49195
:100530001196EC930895DC01603161F480E8139624
:100540008C93139712968C93129711968C93119704
:100550008C93089589E78C9380E511968C9311977D
:10056000E62FE295EF70F0E0EE5BFF4FE49112961C
:10057000EC9312976F70E62FF0E0EE5BFF4FE49183
:100580001396EC9308950F931F93CF93DF9377FD0A
:1005900023C0683E23E0720708F5EC01CB016AE056
:1005A00070E0F3D08C0186E788836A30710538F4F7
:1005B0001982FB01EE5BFF4F64916A8303C0CE0199
:1005C0000196A7DF8A8180688A83F801EE5BFF4F7E
:1005D000E491EB8380E003C081E401C082E4DF9119
:1005E000CF911F910F910895CF93DF93EC01CB0131
:1005F0006AE070E0CAD0FB016536A0F4643649F0C9
:100600006A3040F4FF27EE5BFF4FE491E8831982E4
:1006100003C063E6CE017DDF80E58A8384E78B83B8
:1006200080E001C080E4DF91CF9108950F931F9384
:10063000CF93DF938C01EB0177FF05C0D195C19576
:10064000D10990E401C090E0BE0184E07695679501
:100650008A95E1F7862F903419F4683348F502C083
:10066000643640F58A3068F4D8011C9211969C9348
:1006700011977727FB01EE5BFF4FE4911296EC9305
:1006800004C0F8019193CF0144DFF80182818068B2
:100690008283FE01EF70FF27EE5CFF4FE491F0E0F4
:1006A000EE5BFF4FE491D8011396EC9380E003C01A
:1006B00080E201C081E2DF91CF911F910F910895F7
:1006C000CF93DF93CDB7DD27C650CDBF6ADD15DDF3
:1006D0004FDD98E088E10FB6F894A89581BD0FBE74
:1006E00091BD85B78F7A85BF789412E001E0A89517
:1006F00085B7806285BF889585B78F7D85BF04DD0E
:100700008823A9F380916200813059F0E0F08230B3
:1007100061F56091600070916100CE01019664DF27
:100720000FC060E670E0CE0105968EDD811108C035
:100730006D817E81CE01019626DF109362000FC08D
:10074000109262000CC0CE0105965DDE811105C0DD
:100750006D817E81CE01019669DF0093620088235E
:1007600021F0682FCE010196E6DECE010196DBDC9A
:10077000BECF991B79E004C0991F961708F0961B0D
:10078000881F7A95C9F780950895AA1BBB1B51E174
:1007900007C0AA1FBB1FA617B70710F0A61BB70BF1
:1007A000881F991F5A95A9F780959095BC01CD0196
:0607B0000895F894FFCF4C
:00000001FF
